{"abi":[{"type":"constructor","inputs":[{"name":"initialSupply","type":"uint256","internalType":"uint256"}],"stateMutability":"nonpayable"},{"type":"function","name":"allowance","inputs":[{"name":"","type":"address","internalType":"address"},{"name":"","type":"address","internalType":"address"}],"outputs":[{"name":"","type":"uint256","internalType":"uint256"}],"stateMutability":"view"},{"type":"function","name":"approve","inputs":[{"name":"spender","type":"address","internalType":"address"},{"name":"value","type":"uint256","internalType":"uint256"}],"outputs":[{"name":"","type":"bool","internalType":"bool"}],"stateMutability":"nonpayable"},{"type":"function","name":"balanceOf","inputs":[{"name":"","type":"address","internalType":"address"}],"outputs":[{"name":"","type":"uint256","internalType":"uint256"}],"stateMutability":"view"},{"type":"function","name":"decimals","inputs":[],"outputs":[{"name":"","type":"uint8","internalType":"uint8"}],"stateMutability":"view"},{"type":"function","name":"mint","inputs":[{"name":"to","type":"address","internalType":"address"},{"name":"value","type":"uint256","internalType":"uint256"}],"outputs":[],"stateMutability":"nonpayable"},{"type":"function","name":"name","inputs":[],"outputs":[{"name":"","type":"string","internalType":"string"}],"stateMutability":"view"},{"type":"function","name":"owner","inputs":[],"outputs":[{"name":"","type":"address","internalType":"address"}],"stateMutability":"view"},{"type":"function","name":"symbol","inputs":[],"outputs":[{"name":"","type":"string","internalType":"string"}],"stateMutability":"view"},{"type":"function","name":"totalSupply","inputs":[],"outputs":[{"name":"","type":"uint256","internalType":"uint256"}],"stateMutability":"view"},{"type":"function","name":"transfer","inputs":[{"name":"to","type":"address","internalType":"address"},{"name":"value","type":"uint256","internalType":"uint256"}],"outputs":[{"name":"","type":"bool","internalType":"bool"}],"stateMutability":"nonpayable"},{"type":"function","name":"transferFrom","inputs":[{"name":"from","type":"address","internalType":"address"},{"name":"to","type":"address","internalType":"address"},{"name":"value","type":"uint256","internalType":"uint256"}],"outputs":[{"name":"","type":"bool","internalType":"bool"}],"stateMutability":"nonpayable"},{"type":"event","name":"Approval","inputs":[{"name":"owner","type":"address","indexed":true,"internalType":"address"},{"name":"spender","type":"address","indexed":true,"internalType":"address"},{"name":"value","type":"uint256","indexed":false,"internalType":"uint256"}],"anonymous":false},{"type":"event","name":"Mint","inputs":[{"name":"to","type":"address","indexed":true,"internalType":"address"},{"name":"value","type":"uint256","indexed":false,"internalType":"uint256"}],"anonymous":false},{"type":"event","name":"Transfer","inputs":[{"name":"from","type":"address","indexed":true,"internalType":"address"},{"name":"to","type":"address","indexed":true,"internalType":"address"},{"name":"value","type":"uint256","indexed":false,"internalType":"uint256"}],"anonymous":false}],"bytecode":{"object":"0x60806040526040518060400160405280600d81526020017f56616c617a636f20546f6b656e000000000000000000000000000000000000008152505f908162000049919062000535565b506040518060400160405280600381526020017f564c5a00000000000000000000000000000000000000000000000000000000008152506001908162000090919062000535565b506002805f6101000a81548160ff021916908360ff160217905550348015620000b7575f80fd5b5060405162001a1a38038062001a1a8339818101604052810190620000dd91906200064c565b3360045f6101000a81548173ffffffffffffffffffffffffffffffffffffffff021916908373ffffffffffffffffffffffffffffffffffffffff1602179055506200012f33826200013660201b60201c565b506200078d565b5f73ffffffffffffffffffffffffffffffffffffffff168273ffffffffffffffffffffffffffffffffffffffff1603620001a7576040517f08c379a00000000000000000000000000000000000000000000000000000000081526004016200019e90620006da565b60405180910390fd5b8060035f828254620001ba919062000727565b925050819055508060055f8473ffffffffffffffffffffffffffffffffffffffff1673ffffffffffffffffffffffffffffffffffffffff1681526020019081526020015f205f8282546200020f919062000727565b925050819055508173ffffffffffffffffffffffffffffffffffffffff167f0f6798a560793a54c3bcfe86a93cde1e73087d944c0ea20544137d4121396885826040516200025e919062000772565b60405180910390a28173ffffffffffffffffffffffffffffffffffffffff165f73ffffffffffffffffffffffffffffffffffffffff167fddf252ad1be2c89b69c2b068fc378daa952ba7f163c4a11628f55a4df523b3ef83604051620002c5919062000772565b60405180910390a35050565b5f81519050919050565b7f4e487b71000000000000000000000000000000000000000000000000000000005f52604160045260245ffd5b7f4e487b71000000000000000000000000000000000000000000000000000000005f52602260045260245ffd5b5f60028204905060018216806200034d57607f821691505b60208210810362000363576200036262000308565b5b50919050565b5f819050815f5260205f209050919050565b5f6020601f8301049050919050565b5f82821b905092915050565b5f60088302620003c77fffffffffffffffffffffffffffffffffffffffffffffffffffffffffffffffff826200038a565b620003d386836200038a565b95508019841693508086168417925050509392505050565b5f819050919050565b5f819050919050565b5f6200041d620004176200041184620003eb565b620003f4565b620003eb565b9050919050565b5f819050919050565b6200043883620003fd565b62000450620004478262000424565b84845462000396565b825550505050565b5f90565b6200046662000458565b620004738184846200042d565b505050565b5b818110156200049a576200048e5f826200045c565b60018101905062000479565b5050565b601f821115620004e957620004b38162000369565b620004be846200037b565b81016020851015620004ce578190505b620004e6620004dd856200037b565b83018262000478565b50505b505050565b5f82821c905092915050565b5f6200050b5f1984600802620004ee565b1980831691505092915050565b5f620005258383620004fa565b9150826002028217905092915050565b6200054082620002d1565b67ffffffffffffffff8111156200055c576200055b620002db565b5b62000568825462000335565b620005758282856200049e565b5f60209050601f831160018114620005ab575f841562000596578287015190505b620005a2858262000518565b86555062000611565b601f198416620005bb8662000369565b5f5b82811015620005e457848901518255600182019150602085019450602081019050620005bd565b8683101562000604578489015162000600601f891682620004fa565b8355505b6001600288020188555050505b505050505050565b5f80fd5b6200062881620003eb565b811462000633575f80fd5b50565b5f8151905062000646816200061d565b92915050565b5f6020828403121562000664576200066362000619565b5b5f620006738482850162000636565b91505092915050565b5f82825260208201905092915050565b7f4d696e7420746f207a65726f20616464726573730000000000000000000000005f82015250565b5f620006c26014836200067c565b9150620006cf826200068c565b602082019050919050565b5f6020820190508181035f830152620006f381620006b4565b9050919050565b7f4e487b71000000000000000000000000000000000000000000000000000000005f52601160045260245ffd5b5f6200073382620003eb565b91506200074083620003eb565b92508282019050808211156200075b576200075a620006fa565b5b92915050565b6200076c81620003eb565b82525050565b5f602082019050620007875f83018462000761565b92915050565b61127f806200079b5f395ff3fe608060405234801561000f575f80fd5b50600436106100a7575f3560e01c806340c10f191161006f57806340c10f191461016557806370a08231146101815780638da5cb5b146101b157806395d89b41146101cf578063a9059cbb146101ed578063dd62ed3e1461021d576100a7565b806306fdde03146100ab578063095ea7b3146100c957806318160ddd146100f957806323b872dd14610117578063313ce56714610147575b5f80fd5b6100b361024d565b6040516100c09190610ccc565b60405180910390f35b6100e360048036038101906100de9190610d7d565b6102d8565b6040516100f09190610dd5565b60405180910390f35b6101016103c5565b60405161010e9190610dfd565b60405180910390f35b610131600480360381019061012c9190610e16565b6103cb565b60405161013e9190610dd5565b60405180910390f35b61014f610719565b60405161015c9190610e81565b60405180910390f35b61017f600480360381019061017a9190610d7d565b61072b565b005b61019b60048036038101906101969190610e9a565b6107c8565b6040516101a89190610dfd565b60405180910390f35b6101b96107dd565b6040516101c69190610ed4565b60405180910390f35b6101d7610802565b6040516101e49190610ccc565b60405180910390f35b61020760048036038101906102029190610d7d565b61088e565b6040516102149190610dd5565b60405180910390f35b61023760048036038101906102329190610eed565b610a92565b6040516102449190610dfd565b60405180910390f35b5f805461025990610f58565b80601f016020809104026020016040519081016040528092919081815260200182805461028590610f58565b80156102d05780601f106102a7576101008083540402835291602001916102d0565b820191905f5260205f20905b8154815290600101906020018083116102b357829003601f168201915b505050505081565b5f8160065f3373ffffffffffffffffffffffffffffffffffffffff1673ffffffffffffffffffffffffffffffffffffffff1681526020019081526020015f205f8573ffffffffffffffffffffffffffffffffffffffff1673ffffffffffffffffffffffffffffffffffffffff1681526020019081526020015f20819055508273ffffffffffffffffffffffffffffffffffffffff163373ffffffffffffffffffffffffffffffffffffffff167f8c5be1e5ebec7d5bd14f71427d1e84f3dd0314c0f7b2291e5b200ac8c7c3b925846040516103b39190610dfd565b60405180910390a36001905092915050565b60035481565b5f8073ffffffffffffffffffffffffffffffffffffffff168373ffffffffffffffffffffffffffffffffffffffff160361043a576040517f08c379a000000000000000000000000000000000000000000000000000000000815260040161043190610fd2565b60405180910390fd5b8160055f8673ffffffffffffffffffffffffffffffffffffffff1673ffffffffffffffffffffffffffffffffffffffff1681526020019081526020015f205410156104ba576040517f08c379a00000000000000000000000000000000000000000000000000000000081526004016104b19061103a565b60405180910390fd5b8160065f8673ffffffffffffffffffffffffffffffffffffffff1673ffffffffffffffffffffffffffffffffffffffff1681526020019081526020015f205f3373ffffffffffffffffffffffffffffffffffffffff1673ffffffffffffffffffffffffffffffffffffffff1681526020019081526020015f20541015610575576040517f08c379a000000000000000000000000000000000000000000000000000000000815260040161056c906110a2565b60405180910390fd5b8160055f8673ffffffffffffffffffffffffffffffffffffffff1673ffffffffffffffffffffffffffffffffffffffff1681526020019081526020015f205f8282546105c191906110ed565b925050819055508160055f8573ffffffffffffffffffffffffffffffffffffffff1673ffffffffffffffffffffffffffffffffffffffff1681526020019081526020015f205f8282546106149190611120565b925050819055508160065f8673ffffffffffffffffffffffffffffffffffffffff1673ffffffffffffffffffffffffffffffffffffffff1681526020019081526020015f205f3373ffffffffffffffffffffffffffffffffffffffff1673ffffffffffffffffffffffffffffffffffffffff1681526020019081526020015f205f8282546106a291906110ed565b925050819055508273ffffffffffffffffffffffffffffffffffffffff168473ffffffffffffffffffffffffffffffffffffffff167fddf252ad1be2c89b69c2b068fc378daa952ba7f163c4a11628f55a4df523b3ef846040516107069190610dfd565b60405180910390a3600190509392505050565b60025f9054906101000a900460ff1681565b60045f9054906101000a900473ffffffffffffffffffffffffffffffffffffffff1673ffffffffffffffffffffffffffffffffffffffff163373ffffffffffffffffffffffffffffffffffffffff16146107ba576040517f08c379a00000000000000000000000000000000000000000000000000000000081526004016107b1906111c3565b60405180910390fd5b6107c48282610ab2565b5050565b6005602052805f5260405f205f915090505481565b60045f9054906101000a900473ffffffffffffffffffffffffffffffffffffffff1681565b6001805461080f90610f58565b80601f016020809104026020016040519081016040528092919081815260200182805461083b90610f58565b80156108865780601f1061085d57610100808354040283529160200191610886565b820191905f5260205f20905b81548152906001019060200180831161086957829003601f168201915b505050505081565b5f8073ffffffffffffffffffffffffffffffffffffffff168373ffffffffffffffffffffffffffffffffffffffff16036108fd576040517f08c379a00000000000000000000000000000000000000000000000000000000081526004016108f490610fd2565b60405180910390fd5b8160055f3373ffffffffffffffffffffffffffffffffffffffff1673ffffffffffffffffffffffffffffffffffffffff1681526020019081526020015f2054101561097d576040517f08c379a00000000000000000000000000000000000000000000000000000000081526004016109749061103a565b60405180910390fd5b8160055f3373ffffffffffffffffffffffffffffffffffffffff1673ffffffffffffffffffffffffffffffffffffffff1681526020019081526020015f205f8282546109c991906110ed565b925050819055508160055f8573ffffffffffffffffffffffffffffffffffffffff1673ffffffffffffffffffffffffffffffffffffffff1681526020019081526020015f205f828254610a1c9190611120565b925050819055508273ffffffffffffffffffffffffffffffffffffffff163373ffffffffffffffffffffffffffffffffffffffff167fddf252ad1be2c89b69c2b068fc378daa952ba7f163c4a11628f55a4df523b3ef84604051610a809190610dfd565b60405180910390a36001905092915050565b6006602052815f5260405f20602052805f5260405f205f91509150505481565b5f73ffffffffffffffffffffffffffffffffffffffff168273ffffffffffffffffffffffffffffffffffffffff1603610b20576040517f08c379a0000000000000000000000000000000000000000000000000000000008152600401610b179061122b565b60405180910390fd5b8060035f828254610b319190611120565b925050819055508060055f8473ffffffffffffffffffffffffffffffffffffffff1673ffffffffffffffffffffffffffffffffffffffff1681526020019081526020015f205f828254610b849190611120565b925050819055508173ffffffffffffffffffffffffffffffffffffffff167f0f6798a560793a54c3bcfe86a93cde1e73087d944c0ea20544137d412139688582604051610bd19190610dfd565b60405180910390a28173ffffffffffffffffffffffffffffffffffffffff165f73ffffffffffffffffffffffffffffffffffffffff167fddf252ad1be2c89b69c2b068fc378daa952ba7f163c4a11628f55a4df523b3ef83604051610c369190610dfd565b60405180910390a35050565b5f81519050919050565b5f82825260208201905092915050565b5f5b83811015610c79578082015181840152602081019050610c5e565b5f8484015250505050565b5f601f19601f8301169050919050565b5f610c9e82610c42565b610ca88185610c4c565b9350610cb8818560208601610c5c565b610cc181610c84565b840191505092915050565b5f6020820190508181035f830152610ce48184610c94565b905092915050565b5f80fd5b5f73ffffffffffffffffffffffffffffffffffffffff82169050919050565b5f610d1982610cf0565b9050919050565b610d2981610d0f565b8114610d33575f80fd5b50565b5f81359050610d4481610d20565b92915050565b5f819050919050565b610d5c81610d4a565b8114610d66575f80fd5b50565b5f81359050610d7781610d53565b92915050565b5f8060408385031215610d9357610d92610cec565b5b5f610da085828601610d36565b9250506020610db185828601610d69565b9150509250929050565b5f8115159050919050565b610dcf81610dbb565b82525050565b5f602082019050610de85f830184610dc6565b92915050565b610df781610d4a565b82525050565b5f602082019050610e105f830184610dee565b92915050565b5f805f60608486031215610e2d57610e2c610cec565b5b5f610e3a86828701610d36565b9350506020610e4b86828701610d36565b9250506040610e5c86828701610d69565b9150509250925092565b5f60ff82169050919050565b610e7b81610e66565b82525050565b5f602082019050610e945f830184610e72565b92915050565b5f60208284031215610eaf57610eae610cec565b5b5f610ebc84828501610d36565b91505092915050565b610ece81610d0f565b82525050565b5f602082019050610ee75f830184610ec5565b92915050565b5f8060408385031215610f0357610f02610cec565b5b5f610f1085828601610d36565b9250506020610f2185828601610d36565b9150509250929050565b7f4e487b71000000000000000000000000000000000000000000000000000000005f52602260045260245ffd5b5f6002820490506001821680610f6f57607f821691505b602082108103610f8257610f81610f2b565b5b50919050565b7f5472616e7366657220746f207a65726f206164647265737300000000000000005f82015250565b5f610fbc601883610c4c565b9150610fc782610f88565b602082019050919050565b5f6020820190508181035f830152610fe981610fb0565b9050919050565b7f496e73756666696369656e742062616c616e63650000000000000000000000005f82015250565b5f611024601483610c4c565b915061102f82610ff0565b602082019050919050565b5f6020820190508181035f83015261105181611018565b9050919050565b7f496e73756666696369656e7420616c6c6f77616e6365000000000000000000005f82015250565b5f61108c601683610c4c565b915061109782611058565b602082019050919050565b5f6020820190508181035f8301526110b981611080565b9050919050565b7f4e487b71000000000000000000000000000000000000000000000000000000005f52601160045260245ffd5b5f6110f782610d4a565b915061110283610d4a565b925082820390508181111561111a576111196110c0565b5b92915050565b5f61112a82610d4a565b915061113583610d4a565b925082820190508082111561114d5761114c6110c0565b5b92915050565b7f4f6e6c79206f776e65722063616e2063616c6c20746869732066756e6374696f5f8201527f6e00000000000000000000000000000000000000000000000000000000000000602082015250565b5f6111ad602183610c4c565b91506111b882611153565b604082019050919050565b5f6020820190508181035f8301526111da816111a1565b9050919050565b7f4d696e7420746f207a65726f20616464726573730000000000000000000000005f82015250565b5f611215601483610c4c565b9150611220826111e1565b602082019050919050565b5f6020820190508181035f83015261124281611209565b905091905056fea26469706673582212203e540e060d9cfe57c033eff39894bebe414d78e73d94b5aed8da5d2a1707ba4164736f6c63430008140033","linkReferences":{}},"methodIdentifiers":{"allowance(address,address)":"dd62ed3e","approve(address,uint256)":"095ea7b3","balanceOf(address)":"70a08231","decimals()":"313ce567","mint(address,uint256)":"40c10f19","name()":"06fdde03","owner()":"8da5cb5b","symbol()":"95d89b41","totalSupply()":"18160ddd","transfer(address,uint256)":"a9059cbb","transferFrom(address,address,uint256)":"23b872dd"},"id":0}